{
	"contracts/SampleFallback.sol": {
		"SampleFallback": {
			"abi": [
				{
					"stateMutability": "payable",
					"type": "fallback"
				},
				{
					"inputs": [
						{
							"internalType": "string",
							"name": "_text",
							"type": "string"
						}
					],
					"name": "setText",
					"outputs": [],
					"stateMutability": "nonpayable",
					"type": "function"
				},
				{
					"inputs": [],
					"name": "text",
					"outputs": [
						{
							"internalType": "string",
							"name": "",
							"type": "string"
						}
					],
					"stateMutability": "view",
					"type": "function"
				},
				{
					"stateMutability": "payable",
					"type": "receive"
				}
			],
			"devdoc": {
				"kind": "dev",
				"methods": {},
				"version": 1
			},
			"evm": {
				"assembly": "    /* \"contracts/SampleFallback.sol\":57:386  contract SampleFallback {... */\n  mstore(0x40, 0x80)\n  callvalue\n  dup1\n  iszero\n  tag_1\n  jumpi\n  0x00\n  dup1\n  revert\ntag_1:\n  pop\n  dataSize(sub_0)\n  dup1\n  dataOffset(sub_0)\n  0x00\n  codecopy\n  0x00\n  return\nstop\n\nsub_0: assembly {\n        /* \"contracts/SampleFallback.sol\":57:386  contract SampleFallback {... */\n      mstore(0x40, 0x80)\n      jumpi(tag_1, lt(calldatasize, 0x04))\n      shr(0xe0, calldataload(0x00))\n      dup1\n      0x1f1bd692\n      eq\n      tag_3\n      jumpi\n      dup1\n      0x5d3a1f9d\n      eq\n      tag_4\n      jumpi\n      jump(tag_2)\n    tag_1:\n      jumpi(tag_2, calldatasize)\n        /* \"contracts/SampleFallback.sol\":151:167  text = \"receive\" */\n      mload(0x40)\n      dup1\n      0x40\n      add\n      0x40\n      mstore\n      dup1\n      0x07\n      dup2\n      mstore\n      0x20\n      add\n      0x7265636569766500000000000000000000000000000000000000000000000000\n      dup2\n      mstore\n      pop\n        /* \"contracts/SampleFallback.sol\":151:155  text */\n      0x00\n        /* \"contracts/SampleFallback.sol\":151:167  text = \"receive\" */\n      swap1\n      dup2\n      tag_7\n      swap2\n      swap1\n      tag_8\n      jump\t// in\n    tag_7:\n      stop\n        /* \"contracts/SampleFallback.sol\":57:386  contract SampleFallback {... */\n    tag_2:\n        /* \"contracts/SampleFallback.sol\":219:236  text = \"fallback\" */\n      mload(0x40)\n      dup1\n      0x40\n      add\n      0x40\n      mstore\n      dup1\n      0x08\n      dup2\n      mstore\n      0x20\n      add\n      0x66616c6c6261636b000000000000000000000000000000000000000000000000\n      dup2\n      mstore\n      pop\n        /* \"contracts/SampleFallback.sol\":219:223  text */\n      0x00\n        /* \"contracts/SampleFallback.sol\":219:236  text = \"fallback\" */\n      swap1\n      dup2\n      tag_11\n      swap2\n      swap1\n      tag_8\n      jump\t// in\n    tag_11:\n      pop\n        /* \"contracts/SampleFallback.sol\":254:264  msg.sender */\n      caller\n        /* \"contracts/SampleFallback.sol\":246:274  payable(msg.sender).transfer */\n      0xffffffffffffffffffffffffffffffffffffffff\n      and\n        /* \"contracts/SampleFallback.sol\":246:297  payable(msg.sender).transfer(address(this).balance) */\n      0x08fc\n        /* \"contracts/SampleFallback.sol\":275:296  address(this).balance */\n      selfbalance\n        /* \"contracts/SampleFallback.sol\":246:297  payable(msg.sender).transfer(address(this).balance) */\n      swap1\n      dup2\n      iszero\n      mul\n      swap1\n      mload(0x40)\n      0x00\n      mload(0x40)\n      dup1\n      dup4\n      sub\n      dup2\n      dup6\n      dup9\n      dup9\n      call\n      swap4\n      pop\n      pop\n      pop\n      pop\n      iszero\n      dup1\n      iszero\n      tag_13\n      jumpi\n      returndatasize\n      0x00\n      dup1\n      returndatacopy\n      revert(0x00, returndatasize)\n    tag_13:\n      stop\n        /* \"contracts/SampleFallback.sol\":88:106  string public text */\n    tag_3:\n      callvalue\n      dup1\n      iszero\n      tag_14\n      jumpi\n      0x00\n      dup1\n      revert\n    tag_14:\n      pop\n      tag_15\n      tag_16\n      jump\t// in\n    tag_15:\n      mload(0x40)\n      tag_17\n      swap2\n      swap1\n      tag_18\n      jump\t// in\n    tag_17:\n      mload(0x40)\n      dup1\n      swap2\n      sub\n      swap1\n      return\n        /* \"contracts/SampleFallback.sol\":310:384  function setText(string memory _text) public {... */\n    tag_4:\n      callvalue\n      dup1\n      iszero\n      tag_19\n      jumpi\n      0x00\n      dup1\n      revert\n    tag_19:\n      pop\n      tag_20\n      0x04\n      dup1\n      calldatasize\n      sub\n      dup2\n      add\n      swap1\n      tag_21\n      swap2\n      swap1\n      tag_22\n      jump\t// in\n    tag_21:\n      tag_23\n      jump\t// in\n    tag_20:\n      stop\n        /* \"contracts/SampleFallback.sol\":88:106  string public text */\n    tag_16:\n      0x00\n      dup1\n      sload\n      tag_24\n      swap1\n      tag_25\n      jump\t// in\n    tag_24:\n      dup1\n      0x1f\n      add\n      0x20\n      dup1\n      swap2\n      div\n      mul\n      0x20\n      add\n      mload(0x40)\n      swap1\n      dup2\n      add\n      0x40\n      mstore\n      dup1\n      swap3\n      swap2\n      swap1\n      dup2\n      dup2\n      mstore\n      0x20\n      add\n      dup3\n      dup1\n      sload\n      tag_26\n      swap1\n      tag_25\n      jump\t// in\n    tag_26:\n      dup1\n      iszero\n      tag_27\n      jumpi\n      dup1\n      0x1f\n      lt\n      tag_28\n      jumpi\n      0x0100\n      dup1\n      dup4\n      sload\n      div\n      mul\n      dup4\n      mstore\n      swap2\n      0x20\n      add\n      swap2\n      jump(tag_27)\n    tag_28:\n      dup3\n      add\n      swap2\n      swap1\n      0x00\n      mstore\n      keccak256(0x00, 0x20)\n      swap1\n    tag_29:\n      dup2\n      sload\n      dup2\n      mstore\n      swap1\n      0x01\n      add\n      swap1\n      0x20\n      add\n      dup1\n      dup4\n      gt\n      tag_29\n      jumpi\n      dup3\n      swap1\n      sub\n      0x1f\n      and\n      dup3\n      add\n      swap2\n    tag_27:\n      pop\n      pop\n      pop\n      pop\n      pop\n      dup2\n      jump\t// out\n        /* \"contracts/SampleFallback.sol\":310:384  function setText(string memory _text) public {... */\n    tag_23:\n        /* \"contracts/SampleFallback.sol\":372:377  _text */\n      dup1\n        /* \"contracts/SampleFallback.sol\":365:369  text */\n      0x00\n        /* \"contracts/SampleFallback.sol\":365:377  text = _text */\n      swap1\n      dup2\n      tag_31\n      swap2\n      swap1\n      tag_8\n      jump\t// in\n    tag_31:\n      pop\n        /* \"contracts/SampleFallback.sol\":310:384  function setText(string memory _text) public {... */\n      pop\n      jump\t// out\n        /* \"#utility.yul\":7:106   */\n    tag_32:\n        /* \"#utility.yul\":59:65   */\n      0x00\n        /* \"#utility.yul\":93:98   */\n      dup2\n        /* \"#utility.yul\":87:99   */\n      mload\n        /* \"#utility.yul\":77:99   */\n      swap1\n      pop\n        /* \"#utility.yul\":7:106   */\n      swap2\n      swap1\n      pop\n      jump\t// out\n        /* \"#utility.yul\":112:292   */\n    tag_33:\n        /* \"#utility.yul\":160:237   */\n      0x4e487b7100000000000000000000000000000000000000000000000000000000\n        /* \"#utility.yul\":157:158   */\n      0x00\n        /* \"#utility.yul\":150:238   */\n      mstore\n        /* \"#utility.yul\":257:261   */\n      0x41\n        /* \"#utility.yul\":254:255   */\n      0x04\n        /* \"#utility.yul\":247:262   */\n      mstore\n        /* \"#utility.yul\":281:285   */\n      0x24\n        /* \"#utility.yul\":278:279   */\n      0x00\n        /* \"#utility.yul\":271:286   */\n      revert\n        /* \"#utility.yul\":298:478   */\n    tag_34:\n        /* \"#utility.yul\":346:423   */\n      0x4e487b7100000000000000000000000000000000000000000000000000000000\n        /* \"#utility.yul\":343:344   */\n      0x00\n        /* \"#utility.yul\":336:424   */\n      mstore\n        /* \"#utility.yul\":443:447   */\n      0x22\n        /* \"#utility.yul\":440:441   */\n      0x04\n        /* \"#utility.yul\":433:448   */\n      mstore\n        /* \"#utility.yul\":467:471   */\n      0x24\n        /* \"#utility.yul\":464:465   */\n      0x00\n        /* \"#utility.yul\":457:472   */\n      revert\n        /* \"#utility.yul\":484:804   */\n    tag_25:\n        /* \"#utility.yul\":528:534   */\n      0x00\n        /* \"#utility.yul\":565:566   */\n      0x02\n        /* \"#utility.yul\":559:563   */\n      dup3\n        /* \"#utility.yul\":555:567   */\n      div\n        /* \"#utility.yul\":545:567   */\n      swap1\n      pop\n        /* \"#utility.yul\":612:613   */\n      0x01\n        /* \"#utility.yul\":606:610   */\n      dup3\n        /* \"#utility.yul\":602:614   */\n      and\n        /* \"#utility.yul\":633:651   */\n      dup1\n        /* \"#utility.yul\":623:704   */\n      tag_71\n      jumpi\n        /* \"#utility.yul\":689:693   */\n      0x7f\n        /* \"#utility.yul\":681:687   */\n      dup3\n        /* \"#utility.yul\":677:694   */\n      and\n        /* \"#utility.yul\":667:694   */\n      swap2\n      pop\n        /* \"#utility.yul\":623:704   */\n    tag_71:\n        /* \"#utility.yul\":751:753   */\n      0x20\n        /* \"#utility.yul\":743:749   */\n      dup3\n        /* \"#utility.yul\":740:754   */\n      lt\n        /* \"#utility.yul\":720:738   */\n      dup2\n        /* \"#utility.yul\":717:755   */\n      sub\n        /* \"#utility.yul\":714:798   */\n      tag_72\n      jumpi\n        /* \"#utility.yul\":770:788   */\n      tag_73\n      tag_34\n      jump\t// in\n    tag_73:\n        /* \"#utility.yul\":714:798   */\n    tag_72:\n        /* \"#utility.yul\":535:804   */\n      pop\n        /* \"#utility.yul\":484:804   */\n      swap2\n      swap1\n      pop\n      jump\t// out\n        /* \"#utility.yul\":810:951   */\n    tag_35:\n        /* \"#utility.yul\":859:863   */\n      0x00\n        /* \"#utility.yul\":882:885   */\n      dup2\n        /* \"#utility.yul\":874:885   */\n      swap1\n      pop\n        /* \"#utility.yul\":905:908   */\n      dup2\n        /* \"#utility.yul\":902:903   */\n      0x00\n        /* \"#utility.yul\":895:909   */\n      mstore\n        /* \"#utility.yul\":939:943   */\n      0x20\n        /* \"#utility.yul\":936:937   */\n      0x00\n        /* \"#utility.yul\":926:944   */\n      keccak256\n        /* \"#utility.yul\":918:944   */\n      swap1\n      pop\n        /* \"#utility.yul\":810:951   */\n      swap2\n      swap1\n      pop\n      jump\t// out\n        /* \"#utility.yul\":957:1050   */\n    tag_36:\n        /* \"#utility.yul\":994:1000   */\n      0x00\n        /* \"#utility.yul\":1041:1043   */\n      0x20\n        /* \"#utility.yul\":1036:1038   */\n      0x1f\n        /* \"#utility.yul\":1029:1034   */\n      dup4\n        /* \"#utility.yul\":1025:1039   */\n      add\n        /* \"#utility.yul\":1021:1044   */\n      div\n        /* \"#utility.yul\":1011:1044   */\n      swap1\n      pop\n        /* \"#utility.yul\":957:1050   */\n      swap2\n      swap1\n      pop\n      jump\t// out\n        /* \"#utility.yul\":1056:1163   */\n    tag_37:\n        /* \"#utility.yul\":1100:1108   */\n      0x00\n        /* \"#utility.yul\":1150:1155   */\n      dup3\n        /* \"#utility.yul\":1144:1148   */\n      dup3\n        /* \"#utility.yul\":1140:1156   */\n      shl\n        /* \"#utility.yul\":1119:1156   */\n      swap1\n      pop\n        /* \"#utility.yul\":1056:1163   */\n      swap3\n      swap2\n      pop\n      pop\n      jump\t// out\n        /* \"#utility.yul\":1169:1562   */\n    tag_38:\n        /* \"#utility.yul\":1238:1244   */\n      0x00\n        /* \"#utility.yul\":1288:1289   */\n      0x08\n        /* \"#utility.yul\":1276:1286   */\n      dup4\n        /* \"#utility.yul\":1272:1290   */\n      mul\n        /* \"#utility.yul\":1311:1408   */\n      tag_78\n        /* \"#utility.yul\":1341:1407   */\n      0xffffffffffffffffffffffffffffffffffffffffffffffffffffffffffffffff\n        /* \"#utility.yul\":1330:1339   */\n      dup3\n        /* \"#utility.yul\":1311:1408   */\n      tag_37\n      jump\t// in\n    tag_78:\n        /* \"#utility.yul\":1429:1468   */\n      tag_79\n        /* \"#utility.yul\":1459:1467   */\n      dup7\n        /* \"#utility.yul\":1448:1457   */\n      dup4\n        /* \"#utility.yul\":1429:1468   */\n      tag_37\n      jump\t// in\n    tag_79:\n        /* \"#utility.yul\":1417:1468   */\n      swap6\n      pop\n        /* \"#utility.yul\":1501:1505   */\n      dup1\n        /* \"#utility.yul\":1497:1506   */\n      not\n        /* \"#utility.yul\":1490:1495   */\n      dup5\n        /* \"#utility.yul\":1486:1507   */\n      and\n        /* \"#utility.yul\":1477:1507   */\n      swap4\n      pop\n        /* \"#utility.yul\":1550:1554   */\n      dup1\n        /* \"#utility.yul\":1540:1548   */\n      dup7\n        /* \"#utility.yul\":1536:1555   */\n      and\n        /* \"#utility.yul\":1529:1534   */\n      dup5\n        /* \"#utility.yul\":1526:1556   */\n      or\n        /* \"#utility.yul\":1516:1556   */\n      swap3\n      pop\n        /* \"#utility.yul\":1245:1562   */\n      pop\n      pop\n        /* \"#utility.yul\":1169:1562   */\n      swap4\n      swap3\n      pop\n      pop\n      pop\n      jump\t// out\n        /* \"#utility.yul\":1568:1645   */\n    tag_39:\n        /* \"#utility.yul\":1605:1612   */\n      0x00\n        /* \"#utility.yul\":1634:1639   */\n      dup2\n        /* \"#utility.yul\":1623:1639   */\n      swap1\n      pop\n        /* \"#utility.yul\":1568:1645   */\n      swap2\n      swap1\n      pop\n      jump\t// out\n        /* \"#utility.yul\":1651:1711   */\n    tag_40:\n        /* \"#utility.yul\":1679:1682   */\n      0x00\n        /* \"#utility.yul\":1700:1705   */\n      dup2\n        /* \"#utility.yul\":1693:1705   */\n      swap1\n      pop\n        /* \"#utility.yul\":1651:1711   */\n      swap2\n      swap1\n      pop\n      jump\t// out\n        /* \"#utility.yul\":1717:1859   */\n    tag_41:\n        /* \"#utility.yul\":1767:1776   */\n      0x00\n        /* \"#utility.yul\":1800:1853   */\n      tag_83\n        /* \"#utility.yul\":1818:1852   */\n      tag_84\n        /* \"#utility.yul\":1827:1851   */\n      tag_85\n        /* \"#utility.yul\":1845:1850   */\n      dup5\n        /* \"#utility.yul\":1827:1851   */\n      tag_39\n      jump\t// in\n    tag_85:\n        /* \"#utility.yul\":1818:1852   */\n      tag_40\n      jump\t// in\n    tag_84:\n        /* \"#utility.yul\":1800:1853   */\n      tag_39\n      jump\t// in\n    tag_83:\n        /* \"#utility.yul\":1787:1853   */\n      swap1\n      pop\n        /* \"#utility.yul\":1717:1859   */\n      swap2\n      swap1\n      pop\n      jump\t// out\n        /* \"#utility.yul\":1865:1940   */\n    tag_42:\n        /* \"#utility.yul\":1908:1911   */\n      0x00\n        /* \"#utility.yul\":1929:1934   */\n      dup2\n        /* \"#utility.yul\":1922:1934   */\n      swap1\n      pop\n        /* \"#utility.yul\":1865:1940   */\n      swap2\n      swap1\n      pop\n      jump\t// out\n        /* \"#utility.yul\":1946:2215   */\n    tag_43:\n        /* \"#utility.yul\":2056:2095   */\n      tag_88\n        /* \"#utility.yul\":2087:2094   */\n      dup4\n        /* \"#utility.yul\":2056:2095   */\n      tag_41\n      jump\t// in\n    tag_88:\n        /* \"#utility.yul\":2117:2208   */\n      tag_89\n        /* \"#utility.yul\":2166:2207   */\n      tag_90\n        /* \"#utility.yul\":2190:2206   */\n      dup3\n        /* \"#utility.yul\":2166:2207   */\n      tag_42\n      jump\t// in\n    tag_90:\n        /* \"#utility.yul\":2158:2164   */\n      dup5\n        /* \"#utility.yul\":2151:2155   */\n      dup5\n        /* \"#utility.yul\":2145:2156   */\n      sload\n        /* \"#utility.yul\":2117:2208   */\n      tag_38\n      jump\t// in\n    tag_89:\n        /* \"#utility.yul\":2111:2115   */\n      dup3\n        /* \"#utility.yul\":2104:2209   */\n      sstore\n        /* \"#utility.yul\":2022:2215   */\n      pop\n        /* \"#utility.yul\":1946:2215   */\n      pop\n      pop\n      pop\n      jump\t// out\n        /* \"#utility.yul\":2221:2294   */\n    tag_44:\n        /* \"#utility.yul\":2266:2269   */\n      0x00\n        /* \"#utility.yul\":2221:2294   */\n      swap1\n      jump\t// out\n        /* \"#utility.yul\":2300:2489   */\n    tag_45:\n        /* \"#utility.yul\":2377:2409   */\n      tag_93\n      tag_44\n      jump\t// in\n    tag_93:\n        /* \"#utility.yul\":2418:2483   */\n      tag_94\n        /* \"#utility.yul\":2476:2482   */\n      dup2\n        /* \"#utility.yul\":2468:2474   */\n      dup5\n        /* \"#utility.yul\":2462:2466   */\n      dup5\n        /* \"#utility.yul\":2418:2483   */\n      tag_43\n      jump\t// in\n    tag_94:\n        /* \"#utility.yul\":2353:2489   */\n      pop\n        /* \"#utility.yul\":2300:2489   */\n      pop\n      pop\n      jump\t// out\n        /* \"#utility.yul\":2495:2681   */\n    tag_46:\n        /* \"#utility.yul\":2555:2675   */\n    tag_96:\n        /* \"#utility.yul\":2572:2575   */\n      dup2\n        /* \"#utility.yul\":2565:2570   */\n      dup2\n        /* \"#utility.yul\":2562:2576   */\n      lt\n        /* \"#utility.yul\":2555:2675   */\n      iszero\n      tag_98\n      jumpi\n        /* \"#utility.yul\":2626:2665   */\n      tag_99\n        /* \"#utility.yul\":2663:2664   */\n      0x00\n        /* \"#utility.yul\":2656:2661   */\n      dup3\n        /* \"#utility.yul\":2626:2665   */\n      tag_45\n      jump\t// in\n    tag_99:\n        /* \"#utility.yul\":2599:2600   */\n      0x01\n        /* \"#utility.yul\":2592:2597   */\n      dup2\n        /* \"#utility.yul\":2588:2601   */\n      add\n        /* \"#utility.yul\":2579:2601   */\n      swap1\n      pop\n        /* \"#utility.yul\":2555:2675   */\n      jump(tag_96)\n    tag_98:\n        /* \"#utility.yul\":2495:2681   */\n      pop\n      pop\n      jump\t// out\n        /* \"#utility.yul\":2687:3230   */\n    tag_47:\n        /* \"#utility.yul\":2788:2790   */\n      0x1f\n        /* \"#utility.yul\":2783:2786   */\n      dup3\n        /* \"#utility.yul\":2780:2791   */\n      gt\n        /* \"#utility.yul\":2777:3223   */\n      iszero\n      tag_101\n      jumpi\n        /* \"#utility.yul\":2822:2860   */\n      tag_102\n        /* \"#utility.yul\":2854:2859   */\n      dup2\n        /* \"#utility.yul\":2822:2860   */\n      tag_35\n      jump\t// in\n    tag_102:\n        /* \"#utility.yul\":2906:2935   */\n      tag_103\n        /* \"#utility.yul\":2924:2934   */\n      dup5\n        /* \"#utility.yul\":2906:2935   */\n      tag_36\n      jump\t// in\n    tag_103:\n        /* \"#utility.yul\":2896:2904   */\n      dup2\n        /* \"#utility.yul\":2892:2936   */\n      add\n        /* \"#utility.yul\":3089:3091   */\n      0x20\n        /* \"#utility.yul\":3077:3087   */\n      dup6\n        /* \"#utility.yul\":3074:3092   */\n      lt\n        /* \"#utility.yul\":3071:3120   */\n      iszero\n      tag_104\n      jumpi\n        /* \"#utility.yul\":3110:3118   */\n      dup2\n        /* \"#utility.yul\":3095:3118   */\n      swap1\n      pop\n        /* \"#utility.yul\":3071:3120   */\n    tag_104:\n        /* \"#utility.yul\":3133:3213   */\n      tag_105\n        /* \"#utility.yul\":3189:3211   */\n      tag_106\n        /* \"#utility.yul\":3207:3210   */\n      dup6\n        /* \"#utility.yul\":3189:3211   */\n      tag_36\n      jump\t// in\n    tag_106:\n        /* \"#utility.yul\":3179:3187   */\n      dup4\n        /* \"#utility.yul\":3175:3212   */\n      add\n        /* \"#utility.yul\":3162:3173   */\n      dup3\n        /* \"#utility.yul\":3133:3213   */\n      tag_46\n      jump\t// in\n    tag_105:\n        /* \"#utility.yul\":2792:3223   */\n      pop\n      pop\n        /* \"#utility.yul\":2777:3223   */\n    tag_101:\n        /* \"#utility.yul\":2687:3230   */\n      pop\n      pop\n      pop\n      jump\t// out\n        /* \"#utility.yul\":3236:3353   */\n    tag_48:\n        /* \"#utility.yul\":3290:3298   */\n      0x00\n        /* \"#utility.yul\":3340:3345   */\n      dup3\n        /* \"#utility.yul\":3334:3338   */\n      dup3\n        /* \"#utility.yul\":3330:3346   */\n      shr\n        /* \"#utility.yul\":3309:3346   */\n      swap1\n      pop\n        /* \"#utility.yul\":3236:3353   */\n      swap3\n      swap2\n      pop\n      pop\n      jump\t// out\n        /* \"#utility.yul\":3359:3528   */\n    tag_49:\n        /* \"#utility.yul\":3403:3409   */\n      0x00\n        /* \"#utility.yul\":3436:3487   */\n      tag_109\n        /* \"#utility.yul\":3484:3485   */\n      0x00\n        /* \"#utility.yul\":3480:3486   */\n      not\n        /* \"#utility.yul\":3472:3477   */\n      dup5\n        /* \"#utility.yul\":3469:3470   */\n      0x08\n        /* \"#utility.yul\":3465:3478   */\n      mul\n        /* \"#utility.yul\":3436:3487   */\n      tag_48\n      jump\t// in\n    tag_109:\n        /* \"#utility.yul\":3432:3488   */\n      not\n        /* \"#utility.yul\":3517:3521   */\n      dup1\n        /* \"#utility.yul\":3511:3515   */\n      dup4\n        /* \"#utility.yul\":3507:3522   */\n      and\n        /* \"#utility.yul\":3497:3522   */\n      swap2\n      pop\n        /* \"#utility.yul\":3410:3528   */\n      pop\n        /* \"#utility.yul\":3359:3528   */\n      swap3\n      swap2\n      pop\n      pop\n      jump\t// out\n        /* \"#utility.yul\":3533:3828   */\n    tag_50:\n        /* \"#utility.yul\":3609:3613   */\n      0x00\n        /* \"#utility.yul\":3755:3784   */\n      tag_111\n        /* \"#utility.yul\":3780:3783   */\n      dup4\n        /* \"#utility.yul\":3774:3778   */\n      dup4\n        /* \"#utility.yul\":3755:3784   */\n      tag_49\n      jump\t// in\n    tag_111:\n        /* \"#utility.yul\":3747:3784   */\n      swap2\n      pop\n        /* \"#utility.yul\":3817:3820   */\n      dup3\n        /* \"#utility.yul\":3814:3815   */\n      0x02\n        /* \"#utility.yul\":3810:3821   */\n      mul\n        /* \"#utility.yul\":3804:3808   */\n      dup3\n        /* \"#utility.yul\":3801:3822   */\n      or\n        /* \"#utility.yul\":3793:3822   */\n      swap1\n      pop\n        /* \"#utility.yul\":3533:3828   */\n      swap3\n      swap2\n      pop\n      pop\n      jump\t// out\n        /* \"#utility.yul\":3833:5228   */\n    tag_8:\n        /* \"#utility.yul\":3950:3987   */\n      tag_113\n        /* \"#utility.yul\":3983:3986   */\n      dup3\n        /* \"#utility.yul\":3950:3987   */\n      tag_32\n      jump\t// in\n    tag_113:\n        /* \"#utility.yul\":4052:4070   */\n      0xffffffffffffffff\n        /* \"#utility.yul\":4044:4050   */\n      dup2\n        /* \"#utility.yul\":4041:4071   */\n      gt\n        /* \"#utility.yul\":4038:4094   */\n      iszero\n      tag_114\n      jumpi\n        /* \"#utility.yul\":4074:4092   */\n      tag_115\n      tag_33\n      jump\t// in\n    tag_115:\n        /* \"#utility.yul\":4038:4094   */\n    tag_114:\n        /* \"#utility.yul\":4118:4156   */\n      tag_116\n        /* \"#utility.yul\":4150:4154   */\n      dup3\n        /* \"#utility.yul\":4144:4155   */\n      sload\n        /* \"#utility.yul\":4118:4156   */\n      tag_25\n      jump\t// in\n    tag_116:\n        /* \"#utility.yul\":4203:4270   */\n      tag_117\n        /* \"#utility.yul\":4263:4269   */\n      dup3\n        /* \"#utility.yul\":4255:4261   */\n      dup3\n        /* \"#utility.yul\":4249:4253   */\n      dup6\n        /* \"#utility.yul\":4203:4270   */\n      tag_47\n      jump\t// in\n    tag_117:\n        /* \"#utility.yul\":4297:4298   */\n      0x00\n        /* \"#utility.yul\":4321:4325   */\n      0x20\n        /* \"#utility.yul\":4308:4325   */\n      swap1\n      pop\n        /* \"#utility.yul\":4353:4355   */\n      0x1f\n        /* \"#utility.yul\":4345:4351   */\n      dup4\n        /* \"#utility.yul\":4342:4356   */\n      gt\n        /* \"#utility.yul\":4370:4371   */\n      0x01\n        /* \"#utility.yul\":4365:4983   */\n      dup2\n      eq\n      tag_119\n      jumpi\n        /* \"#utility.yul\":5027:5028   */\n      0x00\n        /* \"#utility.yul\":5044:5050   */\n      dup5\n        /* \"#utility.yul\":5041:5118   */\n      iszero\n      tag_120\n      jumpi\n        /* \"#utility.yul\":5093:5102   */\n      dup3\n        /* \"#utility.yul\":5088:5091   */\n      dup8\n        /* \"#utility.yul\":5084:5103   */\n      add\n        /* \"#utility.yul\":5078:5104   */\n      mload\n        /* \"#utility.yul\":5069:5104   */\n      swap1\n      pop\n        /* \"#utility.yul\":5041:5118   */\n    tag_120:\n        /* \"#utility.yul\":5144:5211   */\n      tag_121\n        /* \"#utility.yul\":5204:5210   */\n      dup6\n        /* \"#utility.yul\":5197:5202   */\n      dup3\n        /* \"#utility.yul\":5144:5211   */\n      tag_50\n      jump\t// in\n    tag_121:\n        /* \"#utility.yul\":5138:5142   */\n      dup7\n        /* \"#utility.yul\":5131:5212   */\n      sstore\n        /* \"#utility.yul\":5000:5222   */\n      pop\n        /* \"#utility.yul\":4335:5222   */\n      jump(tag_118)\n        /* \"#utility.yul\":4365:4983   */\n    tag_119:\n        /* \"#utility.yul\":4417:4421   */\n      0x1f\n        /* \"#utility.yul\":4413:4422   */\n      not\n        /* \"#utility.yul\":4405:4411   */\n      dup5\n        /* \"#utility.yul\":4401:4423   */\n      and\n        /* \"#utility.yul\":4451:4488   */\n      tag_122\n        /* \"#utility.yul\":4483:4487   */\n      dup7\n        /* \"#utility.yul\":4451:4488   */\n      tag_35\n      jump\t// in\n    tag_122:\n        /* \"#utility.yul\":4510:4511   */\n      0x00\n        /* \"#utility.yul\":4524:4732   */\n    tag_123:\n        /* \"#utility.yul\":4538:4545   */\n      dup3\n        /* \"#utility.yul\":4535:4536   */\n      dup2\n        /* \"#utility.yul\":4532:4546   */\n      lt\n        /* \"#utility.yul\":4524:4732   */\n      iszero\n      tag_125\n      jumpi\n        /* \"#utility.yul\":4617:4626   */\n      dup5\n        /* \"#utility.yul\":4612:4615   */\n      dup10\n        /* \"#utility.yul\":4608:4627   */\n      add\n        /* \"#utility.yul\":4602:4628   */\n      mload\n        /* \"#utility.yul\":4594:4600   */\n      dup3\n        /* \"#utility.yul\":4587:4629   */\n      sstore\n        /* \"#utility.yul\":4668:4669   */\n      0x01\n        /* \"#utility.yul\":4660:4666   */\n      dup3\n        /* \"#utility.yul\":4656:4670   */\n      add\n        /* \"#utility.yul\":4646:4670   */\n      swap2\n      pop\n        /* \"#utility.yul\":4715:4717   */\n      0x20\n        /* \"#utility.yul\":4704:4713   */\n      dup6\n        /* \"#utility.yul\":4700:4718   */\n      add\n        /* \"#utility.yul\":4687:4718   */\n      swap5\n      pop\n        /* \"#utility.yul\":4561:4565   */\n      0x20\n        /* \"#utility.yul\":4558:4559   */\n      dup2\n        /* \"#utility.yul\":4554:4566   */\n      add\n        /* \"#utility.yul\":4549:4566   */\n      swap1\n      pop\n        /* \"#utility.yul\":4524:4732   */\n      jump(tag_123)\n    tag_125:\n        /* \"#utility.yul\":4760:4766   */\n      dup7\n        /* \"#utility.yul\":4751:4758   */\n      dup4\n        /* \"#utility.yul\":4748:4767   */\n      lt\n        /* \"#utility.yul\":4745:4924   */\n      iszero\n      tag_126\n      jumpi\n        /* \"#utility.yul\":4818:4827   */\n      dup5\n        /* \"#utility.yul\":4813:4816   */\n      dup10\n        /* \"#utility.yul\":4809:4828   */\n      add\n        /* \"#utility.yul\":4803:4829   */\n      mload\n        /* \"#utility.yul\":4861:4909   */\n      tag_127\n        /* \"#utility.yul\":4903:4907   */\n      0x1f\n        /* \"#utility.yul\":4895:4901   */\n      dup10\n        /* \"#utility.yul\":4891:4908   */\n      and\n        /* \"#utility.yul\":4880:4889   */\n      dup3\n        /* \"#utility.yul\":4861:4909   */\n      tag_49\n      jump\t// in\n    tag_127:\n        /* \"#utility.yul\":4853:4859   */\n      dup4\n        /* \"#utility.yul\":4846:4910   */\n      sstore\n        /* \"#utility.yul\":4768:4924   */\n      pop\n        /* \"#utility.yul\":4745:4924   */\n    tag_126:\n        /* \"#utility.yul\":4970:4971   */\n      0x01\n        /* \"#utility.yul\":4966:4967   */\n      0x02\n        /* \"#utility.yul\":4958:4964   */\n      dup9\n        /* \"#utility.yul\":4954:4968   */\n      mul\n        /* \"#utility.yul\":4950:4972   */\n      add\n        /* \"#utility.yul\":4944:4948   */\n      dup9\n        /* \"#utility.yul\":4937:4973   */\n      sstore\n        /* \"#utility.yul\":4372:4983   */\n      pop\n      pop\n      pop\n        /* \"#utility.yul\":4335:5222   */\n    tag_118:\n      pop\n        /* \"#utility.yul\":3925:5228   */\n      pop\n      pop\n      pop\n        /* \"#utility.yul\":3833:5228   */\n      pop\n      pop\n      jump\t// out\n        /* \"#utility.yul\":5234:5403   */\n    tag_51:\n        /* \"#utility.yul\":5318:5329   */\n      0x00\n        /* \"#utility.yul\":5352:5358   */\n      dup3\n        /* \"#utility.yul\":5347:5350   */\n      dup3\n        /* \"#utility.yul\":5340:5359   */\n      mstore\n        /* \"#utility.yul\":5392:5396   */\n      0x20\n        /* \"#utility.yul\":5387:5390   */\n      dup3\n        /* \"#utility.yul\":5383:5397   */\n      add\n        /* \"#utility.yul\":5368:5397   */\n      swap1\n      pop\n        /* \"#utility.yul\":5234:5403   */\n      swap3\n      swap2\n      pop\n      pop\n      jump\t// out\n        /* \"#utility.yul\":5409:5548   */\n    tag_52:\n        /* \"#utility.yul\":5498:5504   */\n      dup3\n        /* \"#utility.yul\":5493:5496   */\n      dup2\n        /* \"#utility.yul\":5488:5491   */\n      dup4\n        /* \"#utility.yul\":5482:5505   */\n      mcopy\n        /* \"#utility.yul\":5539:5540   */\n      0x00\n        /* \"#utility.yul\":5530:5536   */\n      dup4\n        /* \"#utility.yul\":5525:5528   */\n      dup4\n        /* \"#utility.yul\":5521:5537   */\n      add\n        /* \"#utility.yul\":5514:5541   */\n      mstore\n        /* \"#utility.yul\":5409:5548   */\n      pop\n      pop\n      pop\n      jump\t// out\n        /* \"#utility.yul\":5554:5656   */\n    tag_53:\n        /* \"#utility.yul\":5595:5601   */\n      0x00\n        /* \"#utility.yul\":5646:5648   */\n      0x1f\n        /* \"#utility.yul\":5642:5649   */\n      not\n        /* \"#utility.yul\":5637:5639   */\n      0x1f\n        /* \"#utility.yul\":5630:5635   */\n      dup4\n        /* \"#utility.yul\":5626:5640   */\n      add\n        /* \"#utility.yul\":5622:5650   */\n      and\n        /* \"#utility.yul\":5612:5650   */\n      swap1\n      pop\n        /* \"#utility.yul\":5554:5656   */\n      swap2\n      swap1\n      pop\n      jump\t// out\n        /* \"#utility.yul\":5662:6039   */\n    tag_54:\n        /* \"#utility.yul\":5750:5753   */\n      0x00\n        /* \"#utility.yul\":5778:5817   */\n      tag_132\n        /* \"#utility.yul\":5811:5816   */\n      dup3\n        /* \"#utility.yul\":5778:5817   */\n      tag_32\n      jump\t// in\n    tag_132:\n        /* \"#utility.yul\":5833:5904   */\n      tag_133\n        /* \"#utility.yul\":5897:5903   */\n      dup2\n        /* \"#utility.yul\":5892:5895   */\n      dup6\n        /* \"#utility.yul\":5833:5904   */\n      tag_51\n      jump\t// in\n    tag_133:\n        /* \"#utility.yul\":5826:5904   */\n      swap4\n      pop\n        /* \"#utility.yul\":5913:5978   */\n      tag_134\n        /* \"#utility.yul\":5971:5977   */\n      dup2\n        /* \"#utility.yul\":5966:5969   */\n      dup6\n        /* \"#utility.yul\":5959:5963   */\n      0x20\n        /* \"#utility.yul\":5952:5957   */\n      dup7\n        /* \"#utility.yul\":5948:5964   */\n      add\n        /* \"#utility.yul\":5913:5978   */\n      tag_52\n      jump\t// in\n    tag_134:\n        /* \"#utility.yul\":6003:6032   */\n      tag_135\n        /* \"#utility.yul\":6025:6031   */\n      dup2\n        /* \"#utility.yul\":6003:6032   */\n      tag_53\n      jump\t// in\n    tag_135:\n        /* \"#utility.yul\":5998:6001   */\n      dup5\n        /* \"#utility.yul\":5994:6033   */\n      add\n        /* \"#utility.yul\":5987:6033   */\n      swap2\n      pop\n        /* \"#utility.yul\":5754:6039   */\n      pop\n        /* \"#utility.yul\":5662:6039   */\n      swap3\n      swap2\n      pop\n      pop\n      jump\t// out\n        /* \"#utility.yul\":6045:6358   */\n    tag_18:\n        /* \"#utility.yul\":6158:6162   */\n      0x00\n        /* \"#utility.yul\":6196:6198   */\n      0x20\n        /* \"#utility.yul\":6185:6194   */\n      dup3\n        /* \"#utility.yul\":6181:6199   */\n      add\n        /* \"#utility.yul\":6173:6199   */\n      swap1\n      pop\n        /* \"#utility.yul\":6245:6254   */\n      dup2\n        /* \"#utility.yul\":6239:6243   */\n      dup2\n        /* \"#utility.yul\":6235:6255   */\n      sub\n        /* \"#utility.yul\":6231:6232   */\n      0x00\n        /* \"#utility.yul\":6220:6229   */\n      dup4\n        /* \"#utility.yul\":6216:6233   */\n      add\n        /* \"#utility.yul\":6209:6256   */\n      mstore\n        /* \"#utility.yul\":6273:6351   */\n      tag_137\n        /* \"#utility.yul\":6346:6350   */\n      dup2\n        /* \"#utility.yul\":6337:6343   */\n      dup5\n        /* \"#utility.yul\":6273:6351   */\n      tag_54\n      jump\t// in\n    tag_137:\n        /* \"#utility.yul\":6265:6351   */\n      swap1\n      pop\n        /* \"#utility.yul\":6045:6358   */\n      swap3\n      swap2\n      pop\n      pop\n      jump\t// out\n        /* \"#utility.yul\":6364:6439   */\n    tag_55:\n        /* \"#utility.yul\":6397:6403   */\n      0x00\n        /* \"#utility.yul\":6430:6432   */\n      0x40\n        /* \"#utility.yul\":6424:6433   */\n      mload\n        /* \"#utility.yul\":6414:6433   */\n      swap1\n      pop\n        /* \"#utility.yul\":6364:6439   */\n      swap1\n      jump\t// out\n        /* \"#utility.yul\":6445:6562   */\n    tag_56:\n        /* \"#utility.yul\":6554:6555   */\n      0x00\n        /* \"#utility.yul\":6551:6552   */\n      dup1\n        /* \"#utility.yul\":6544:6556   */\n      revert\n        /* \"#utility.yul\":6568:6685   */\n    tag_57:\n        /* \"#utility.yul\":6677:6678   */\n      0x00\n        /* \"#utility.yul\":6674:6675   */\n      dup1\n        /* \"#utility.yul\":6667:6679   */\n      revert\n        /* \"#utility.yul\":6691:6808   */\n    tag_58:\n        /* \"#utility.yul\":6800:6801   */\n      0x00\n        /* \"#utility.yul\":6797:6798   */\n      dup1\n        /* \"#utility.yul\":6790:6802   */\n      revert\n        /* \"#utility.yul\":6814:6931   */\n    tag_59:\n        /* \"#utility.yul\":6923:6924   */\n      0x00\n        /* \"#utility.yul\":6920:6921   */\n      dup1\n        /* \"#utility.yul\":6913:6925   */\n      revert\n        /* \"#utility.yul\":6937:7218   */\n    tag_60:\n        /* \"#utility.yul\":7020:7047   */\n      tag_144\n        /* \"#utility.yul\":7042:7046   */\n      dup3\n        /* \"#utility.yul\":7020:7047   */\n      tag_53\n      jump\t// in\n    tag_144:\n        /* \"#utility.yul\":7012:7018   */\n      dup2\n        /* \"#utility.yul\":7008:7048   */\n      add\n        /* \"#utility.yul\":7150:7156   */\n      dup2\n        /* \"#utility.yul\":7138:7148   */\n      dup2\n        /* \"#utility.yul\":7135:7157   */\n      lt\n        /* \"#utility.yul\":7114:7132   */\n      0xffffffffffffffff\n        /* \"#utility.yul\":7102:7112   */\n      dup3\n        /* \"#utility.yul\":7099:7133   */\n      gt\n        /* \"#utility.yul\":7096:7158   */\n      or\n        /* \"#utility.yul\":7093:7181   */\n      iszero\n      tag_145\n      jumpi\n        /* \"#utility.yul\":7161:7179   */\n      tag_146\n      tag_33\n      jump\t// in\n    tag_146:\n        /* \"#utility.yul\":7093:7181   */\n    tag_145:\n        /* \"#utility.yul\":7201:7211   */\n      dup1\n        /* \"#utility.yul\":7197:7199   */\n      0x40\n        /* \"#utility.yul\":7190:7212   */\n      mstore\n        /* \"#utility.yul\":6980:7218   */\n      pop\n        /* \"#utility.yul\":6937:7218   */\n      pop\n      pop\n      jump\t// out\n        /* \"#utility.yul\":7224:7353   */\n    tag_61:\n        /* \"#utility.yul\":7258:7264   */\n      0x00\n        /* \"#utility.yul\":7285:7305   */\n      tag_148\n      tag_55\n      jump\t// in\n    tag_148:\n        /* \"#utility.yul\":7275:7305   */\n      swap1\n      pop\n        /* \"#utility.yul\":7314:7347   */\n      tag_149\n        /* \"#utility.yul\":7342:7346   */\n      dup3\n        /* \"#utility.yul\":7334:7340   */\n      dup3\n        /* \"#utility.yul\":7314:7347   */\n      tag_60\n      jump\t// in\n    tag_149:\n        /* \"#utility.yul\":7224:7353   */\n      swap2\n      swap1\n      pop\n      jump\t// out\n        /* \"#utility.yul\":7359:7667   */\n    tag_62:\n        /* \"#utility.yul\":7421:7425   */\n      0x00\n        /* \"#utility.yul\":7511:7529   */\n      0xffffffffffffffff\n        /* \"#utility.yul\":7503:7509   */\n      dup3\n        /* \"#utility.yul\":7500:7530   */\n      gt\n        /* \"#utility.yul\":7497:7553   */\n      iszero\n      tag_151\n      jumpi\n        /* \"#utility.yul\":7533:7551   */\n      tag_152\n      tag_33\n      jump\t// in\n    tag_152:\n        /* \"#utility.yul\":7497:7553   */\n    tag_151:\n        /* \"#utility.yul\":7571:7600   */\n      tag_153\n        /* \"#utility.yul\":7593:7599   */\n      dup3\n        /* \"#utility.yul\":7571:7600   */\n      tag_53\n      jump\t// in\n    tag_153:\n        /* \"#utility.yul\":7563:7600   */\n      swap1\n      pop\n        /* \"#utility.yul\":7655:7659   */\n      0x20\n        /* \"#utility.yul\":7649:7653   */\n      dup2\n        /* \"#utility.yul\":7645:7660   */\n      add\n        /* \"#utility.yul\":7637:7660   */\n      swap1\n      pop\n        /* \"#utility.yul\":7359:7667   */\n      swap2\n      swap1\n      pop\n      jump\t// out\n        /* \"#utility.yul\":7673:7821   */\n    tag_63:\n        /* \"#utility.yul\":7771:7777   */\n      dup3\n        /* \"#utility.yul\":7766:7769   */\n      dup2\n        /* \"#utility.yul\":7761:7764   */\n      dup4\n        /* \"#utility.yul\":7748:7778   */\n      calldatacopy\n        /* \"#utility.yul\":7812:7813   */\n      0x00\n        /* \"#utility.yul\":7803:7809   */\n      dup4\n        /* \"#utility.yul\":7798:7801   */\n      dup4\n        /* \"#utility.yul\":7794:7810   */\n      add\n        /* \"#utility.yul\":7787:7814   */\n      mstore\n        /* \"#utility.yul\":7673:7821   */\n      pop\n      pop\n      pop\n      jump\t// out\n        /* \"#utility.yul\":7827:8252   */\n    tag_64:\n        /* \"#utility.yul\":7905:7910   */\n      0x00\n        /* \"#utility.yul\":7930:7996   */\n      tag_156\n        /* \"#utility.yul\":7946:7995   */\n      tag_157\n        /* \"#utility.yul\":7988:7994   */\n      dup5\n        /* \"#utility.yul\":7946:7995   */\n      tag_62\n      jump\t// in\n    tag_157:\n        /* \"#utility.yul\":7930:7996   */\n      tag_61\n      jump\t// in\n    tag_156:\n        /* \"#utility.yul\":7921:7996   */\n      swap1\n      pop\n        /* \"#utility.yul\":8019:8025   */\n      dup3\n        /* \"#utility.yul\":8012:8017   */\n      dup2\n        /* \"#utility.yul\":8005:8026   */\n      mstore\n        /* \"#utility.yul\":8057:8061   */\n      0x20\n        /* \"#utility.yul\":8050:8055   */\n      dup2\n        /* \"#utility.yul\":8046:8062   */\n      add\n        /* \"#utility.yul\":8095:8098   */\n      dup5\n        /* \"#utility.yul\":8086:8092   */\n      dup5\n        /* \"#utility.yul\":8081:8084   */\n      dup5\n        /* \"#utility.yul\":8077:8093   */\n      add\n        /* \"#utility.yul\":8074:8099   */\n      gt\n        /* \"#utility.yul\":8071:8183   */\n      iszero\n      tag_158\n      jumpi\n        /* \"#utility.yul\":8102:8181   */\n      tag_159\n      tag_59\n      jump\t// in\n    tag_159:\n        /* \"#utility.yul\":8071:8183   */\n    tag_158:\n        /* \"#utility.yul\":8192:8246   */\n      tag_160\n        /* \"#utility.yul\":8239:8245   */\n      dup5\n        /* \"#utility.yul\":8234:8237   */\n      dup3\n        /* \"#utility.yul\":8229:8232   */\n      dup6\n        /* \"#utility.yul\":8192:8246   */\n      tag_63\n      jump\t// in\n    tag_160:\n        /* \"#utility.yul\":7911:8252   */\n      pop\n        /* \"#utility.yul\":7827:8252   */\n      swap4\n      swap3\n      pop\n      pop\n      pop\n      jump\t// out\n        /* \"#utility.yul\":8272:8612   */\n    tag_65:\n        /* \"#utility.yul\":8328:8333   */\n      0x00\n        /* \"#utility.yul\":8377:8380   */\n      dup3\n        /* \"#utility.yul\":8370:8374   */\n      0x1f\n        /* \"#utility.yul\":8362:8368   */\n      dup4\n        /* \"#utility.yul\":8358:8375   */\n      add\n        /* \"#utility.yul\":8354:8381   */\n      slt\n        /* \"#utility.yul\":8344:8466   */\n      tag_162\n      jumpi\n        /* \"#utility.yul\":8385:8464   */\n      tag_163\n      tag_58\n      jump\t// in\n    tag_163:\n        /* \"#utility.yul\":8344:8466   */\n    tag_162:\n        /* \"#utility.yul\":8502:8508   */\n      dup2\n        /* \"#utility.yul\":8489:8509   */\n      calldataload\n        /* \"#utility.yul\":8527:8606   */\n      tag_164\n        /* \"#utility.yul\":8602:8605   */\n      dup5\n        /* \"#utility.yul\":8594:8600   */\n      dup3\n        /* \"#utility.yul\":8587:8591   */\n      0x20\n        /* \"#utility.yul\":8579:8585   */\n      dup7\n        /* \"#utility.yul\":8575:8592   */\n      add\n        /* \"#utility.yul\":8527:8606   */\n      tag_64\n      jump\t// in\n    tag_164:\n        /* \"#utility.yul\":8518:8606   */\n      swap2\n      pop\n        /* \"#utility.yul\":8334:8612   */\n      pop\n        /* \"#utility.yul\":8272:8612   */\n      swap3\n      swap2\n      pop\n      pop\n      jump\t// out\n        /* \"#utility.yul\":8618:9127   */\n    tag_22:\n        /* \"#utility.yul\":8687:8693   */\n      0x00\n        /* \"#utility.yul\":8736:8738   */\n      0x20\n        /* \"#utility.yul\":8724:8733   */\n      dup3\n        /* \"#utility.yul\":8715:8722   */\n      dup5\n        /* \"#utility.yul\":8711:8734   */\n      sub\n        /* \"#utility.yul\":8707:8739   */\n      slt\n        /* \"#utility.yul\":8704:8823   */\n      iszero\n      tag_166\n      jumpi\n        /* \"#utility.yul\":8742:8821   */\n      tag_167\n      tag_56\n      jump\t// in\n    tag_167:\n        /* \"#utility.yul\":8704:8823   */\n    tag_166:\n        /* \"#utility.yul\":8890:8891   */\n      0x00\n        /* \"#utility.yul\":8879:8888   */\n      dup3\n        /* \"#utility.yul\":8875:8892   */\n      add\n        /* \"#utility.yul\":8862:8893   */\n      calldataload\n        /* \"#utility.yul\":8920:8938   */\n      0xffffffffffffffff\n        /* \"#utility.yul\":8912:8918   */\n      dup2\n        /* \"#utility.yul\":8909:8939   */\n      gt\n        /* \"#utility.yul\":8906:9023   */\n      iszero\n      tag_168\n      jumpi\n        /* \"#utility.yul\":8942:9021   */\n      tag_169\n      tag_57\n      jump\t// in\n    tag_169:\n        /* \"#utility.yul\":8906:9023   */\n    tag_168:\n        /* \"#utility.yul\":9047:9110   */\n      tag_170\n        /* \"#utility.yul\":9102:9109   */\n      dup5\n        /* \"#utility.yul\":9093:9099   */\n      dup3\n        /* \"#utility.yul\":9082:9091   */\n      dup6\n        /* \"#utility.yul\":9078:9100   */\n      add\n        /* \"#utility.yul\":9047:9110   */\n      tag_65\n      jump\t// in\n    tag_170:\n        /* \"#utility.yul\":9037:9110   */\n      swap2\n      pop\n        /* \"#utility.yul\":8833:9120   */\n      pop\n        /* \"#utility.yul\":8618:9127   */\n      swap3\n      swap2\n      pop\n      pop\n      jump\t// out\n\n    auxdata: 0xa264697066735822122028c16a4ba6c20a131c05ce5b223ba9270d620292bb2deea88cc1c4c7048dfed264736f6c634300081a0033\n}\n",
				"bytecode": {
					"linkReferences": {},
					"object": "6080604052348015600e575f80fd5b5061070a8061001c5f395ff3fe60806040526004361061002c575f3560e01c80631f1bd692146100ff5780635d3a1f9d1461012957610076565b36610076576040518060400160405280600781526020017f72656365697665000000000000000000000000000000000000000000000000008152505f90816100749190610428565b005b6040518060400160405280600881526020017f66616c6c6261636b0000000000000000000000000000000000000000000000008152505f90816100b99190610428565b503373ffffffffffffffffffffffffffffffffffffffff166108fc4790811502906040515f60405180830381858888f193505050501580156100fd573d5f803e3d5ffd5b005b34801561010a575f80fd5b50610113610151565b604051610120919061055d565b60405180910390f35b348015610134575f80fd5b5061014f600480360381019061014a919061068d565b6101dc565b005b5f805461015d90610252565b80601f016020809104026020016040519081016040528092919081815260200182805461018990610252565b80156101d45780601f106101ab576101008083540402835291602001916101d4565b820191905f5260205f20905b8154815290600101906020018083116101b757829003601f168201915b505050505081565b805f90816101ea9190610428565b5050565b5f81519050919050565b7f4e487b71000000000000000000000000000000000000000000000000000000005f52604160045260245ffd5b7f4e487b71000000000000000000000000000000000000000000000000000000005f52602260045260245ffd5b5f600282049050600182168061026957607f821691505b60208210810361027c5761027b610225565b5b50919050565b5f819050815f5260205f209050919050565b5f6020601f8301049050919050565b5f82821b905092915050565b5f600883026102de7fffffffffffffffffffffffffffffffffffffffffffffffffffffffffffffffff826102a3565b6102e886836102a3565b95508019841693508086168417925050509392505050565b5f819050919050565b5f819050919050565b5f61032c61032761032284610300565b610309565b610300565b9050919050565b5f819050919050565b61034583610312565b61035961035182610333565b8484546102af565b825550505050565b5f90565b61036d610361565b61037881848461033c565b505050565b5b8181101561039b576103905f82610365565b60018101905061037e565b5050565b601f8211156103e0576103b181610282565b6103ba84610294565b810160208510156103c9578190505b6103dd6103d585610294565b83018261037d565b50505b505050565b5f82821c905092915050565b5f6104005f19846008026103e5565b1980831691505092915050565b5f61041883836103f1565b9150826002028217905092915050565b610431826101ee565b67ffffffffffffffff81111561044a576104496101f8565b5b6104548254610252565b61045f82828561039f565b5f60209050601f831160018114610490575f841561047e578287015190505b610488858261040d565b8655506104ef565b601f19841661049e86610282565b5f5b828110156104c5578489015182556001820191506020850194506020810190506104a0565b868310156104e257848901516104de601f8916826103f1565b8355505b6001600288020188555050505b505050505050565b5f82825260208201905092915050565b8281835e5f83830152505050565b5f601f19601f8301169050919050565b5f61052f826101ee565b61053981856104f7565b9350610549818560208601610507565b61055281610515565b840191505092915050565b5f6020820190508181035f8301526105758184610525565b905092915050565b5f604051905090565b5f80fd5b5f80fd5b5f80fd5b5f80fd5b61059f82610515565b810181811067ffffffffffffffff821117156105be576105bd6101f8565b5b80604052505050565b5f6105d061057d565b90506105dc8282610596565b919050565b5f67ffffffffffffffff8211156105fb576105fa6101f8565b5b61060482610515565b9050602081019050919050565b828183375f83830152505050565b5f61063161062c846105e1565b6105c7565b90508281526020810184848401111561064d5761064c610592565b5b610658848285610611565b509392505050565b5f82601f8301126106745761067361058e565b5b813561068484826020860161061f565b91505092915050565b5f602082840312156106a2576106a1610586565b5b5f82013567ffffffffffffffff8111156106bf576106be61058a565b5b6106cb84828501610660565b9150509291505056fea264697066735822122028c16a4ba6c20a131c05ce5b223ba9270d620292bb2deea88cc1c4c7048dfed264736f6c634300081a0033",
					"opcodes": "PUSH1 0x80 PUSH1 0x40 MSTORE CALLVALUE DUP1 ISZERO PUSH1 0xE JUMPI PUSH0 DUP1 REVERT JUMPDEST POP PUSH2 0x70A DUP1 PUSH2 0x1C PUSH0 CODECOPY PUSH0 RETURN INVALID PUSH1 0x80 PUSH1 0x40 MSTORE PUSH1 0x4 CALLDATASIZE LT PUSH2 0x2C JUMPI PUSH0 CALLDATALOAD PUSH1 0xE0 SHR DUP1 PUSH4 0x1F1BD692 EQ PUSH2 0xFF JUMPI DUP1 PUSH4 0x5D3A1F9D EQ PUSH2 0x129 JUMPI PUSH2 0x76 JUMP JUMPDEST CALLDATASIZE PUSH2 0x76 JUMPI PUSH1 0x40 MLOAD DUP1 PUSH1 0x40 ADD PUSH1 0x40 MSTORE DUP1 PUSH1 0x7 DUP2 MSTORE PUSH1 0x20 ADD PUSH32 0x7265636569766500000000000000000000000000000000000000000000000000 DUP2 MSTORE POP PUSH0 SWAP1 DUP2 PUSH2 0x74 SWAP2 SWAP1 PUSH2 0x428 JUMP JUMPDEST STOP JUMPDEST PUSH1 0x40 MLOAD DUP1 PUSH1 0x40 ADD PUSH1 0x40 MSTORE DUP1 PUSH1 0x8 DUP2 MSTORE PUSH1 0x20 ADD PUSH32 0x66616C6C6261636B000000000000000000000000000000000000000000000000 DUP2 MSTORE POP PUSH0 SWAP1 DUP2 PUSH2 0xB9 SWAP2 SWAP1 PUSH2 0x428 JUMP JUMPDEST POP CALLER PUSH20 0xFFFFFFFFFFFFFFFFFFFFFFFFFFFFFFFFFFFFFFFF AND PUSH2 0x8FC SELFBALANCE SWAP1 DUP2 ISZERO MUL SWAP1 PUSH1 0x40 MLOAD PUSH0 PUSH1 0x40 MLOAD DUP1 DUP4 SUB DUP2 DUP6 DUP9 DUP9 CALL SWAP4 POP POP POP POP ISZERO DUP1 ISZERO PUSH2 0xFD JUMPI RETURNDATASIZE PUSH0 DUP1 RETURNDATACOPY RETURNDATASIZE PUSH0 REVERT JUMPDEST STOP JUMPDEST CALLVALUE DUP1 ISZERO PUSH2 0x10A JUMPI PUSH0 DUP1 REVERT JUMPDEST POP PUSH2 0x113 PUSH2 0x151 JUMP JUMPDEST PUSH1 0x40 MLOAD PUSH2 0x120 SWAP2 SWAP1 PUSH2 0x55D JUMP JUMPDEST PUSH1 0x40 MLOAD DUP1 SWAP2 SUB SWAP1 RETURN JUMPDEST CALLVALUE DUP1 ISZERO PUSH2 0x134 JUMPI PUSH0 DUP1 REVERT JUMPDEST POP PUSH2 0x14F PUSH1 0x4 DUP1 CALLDATASIZE SUB DUP2 ADD SWAP1 PUSH2 0x14A SWAP2 SWAP1 PUSH2 0x68D JUMP JUMPDEST PUSH2 0x1DC JUMP JUMPDEST STOP JUMPDEST PUSH0 DUP1 SLOAD PUSH2 0x15D SWAP1 PUSH2 0x252 JUMP JUMPDEST DUP1 PUSH1 0x1F ADD PUSH1 0x20 DUP1 SWAP2 DIV MUL PUSH1 0x20 ADD PUSH1 0x40 MLOAD SWAP1 DUP2 ADD PUSH1 0x40 MSTORE DUP1 SWAP3 SWAP2 SWAP1 DUP2 DUP2 MSTORE PUSH1 0x20 ADD DUP3 DUP1 SLOAD PUSH2 0x189 SWAP1 PUSH2 0x252 JUMP JUMPDEST DUP1 ISZERO PUSH2 0x1D4 JUMPI DUP1 PUSH1 0x1F LT PUSH2 0x1AB JUMPI PUSH2 0x100 DUP1 DUP4 SLOAD DIV MUL DUP4 MSTORE SWAP2 PUSH1 0x20 ADD SWAP2 PUSH2 0x1D4 JUMP JUMPDEST DUP3 ADD SWAP2 SWAP1 PUSH0 MSTORE PUSH1 0x20 PUSH0 KECCAK256 SWAP1 JUMPDEST DUP2 SLOAD DUP2 MSTORE SWAP1 PUSH1 0x1 ADD SWAP1 PUSH1 0x20 ADD DUP1 DUP4 GT PUSH2 0x1B7 JUMPI DUP3 SWAP1 SUB PUSH1 0x1F AND DUP3 ADD SWAP2 JUMPDEST POP POP POP POP POP DUP2 JUMP JUMPDEST DUP1 PUSH0 SWAP1 DUP2 PUSH2 0x1EA SWAP2 SWAP1 PUSH2 0x428 JUMP JUMPDEST POP POP JUMP JUMPDEST PUSH0 DUP2 MLOAD SWAP1 POP SWAP2 SWAP1 POP JUMP JUMPDEST PUSH32 0x4E487B7100000000000000000000000000000000000000000000000000000000 PUSH0 MSTORE PUSH1 0x41 PUSH1 0x4 MSTORE PUSH1 0x24 PUSH0 REVERT JUMPDEST PUSH32 0x4E487B7100000000000000000000000000000000000000000000000000000000 PUSH0 MSTORE PUSH1 0x22 PUSH1 0x4 MSTORE PUSH1 0x24 PUSH0 REVERT JUMPDEST PUSH0 PUSH1 0x2 DUP3 DIV SWAP1 POP PUSH1 0x1 DUP3 AND DUP1 PUSH2 0x269 JUMPI PUSH1 0x7F DUP3 AND SWAP2 POP JUMPDEST PUSH1 0x20 DUP3 LT DUP2 SUB PUSH2 0x27C JUMPI PUSH2 0x27B PUSH2 0x225 JUMP JUMPDEST JUMPDEST POP SWAP2 SWAP1 POP JUMP JUMPDEST PUSH0 DUP2 SWAP1 POP DUP2 PUSH0 MSTORE PUSH1 0x20 PUSH0 KECCAK256 SWAP1 POP SWAP2 SWAP1 POP JUMP JUMPDEST PUSH0 PUSH1 0x20 PUSH1 0x1F DUP4 ADD DIV SWAP1 POP SWAP2 SWAP1 POP JUMP JUMPDEST PUSH0 DUP3 DUP3 SHL SWAP1 POP SWAP3 SWAP2 POP POP JUMP JUMPDEST PUSH0 PUSH1 0x8 DUP4 MUL PUSH2 0x2DE PUSH32 0xFFFFFFFFFFFFFFFFFFFFFFFFFFFFFFFFFFFFFFFFFFFFFFFFFFFFFFFFFFFFFFFF DUP3 PUSH2 0x2A3 JUMP JUMPDEST PUSH2 0x2E8 DUP7 DUP4 PUSH2 0x2A3 JUMP JUMPDEST SWAP6 POP DUP1 NOT DUP5 AND SWAP4 POP DUP1 DUP7 AND DUP5 OR SWAP3 POP POP POP SWAP4 SWAP3 POP POP POP JUMP JUMPDEST PUSH0 DUP2 SWAP1 POP SWAP2 SWAP1 POP JUMP JUMPDEST PUSH0 DUP2 SWAP1 POP SWAP2 SWAP1 POP JUMP JUMPDEST PUSH0 PUSH2 0x32C PUSH2 0x327 PUSH2 0x322 DUP5 PUSH2 0x300 JUMP JUMPDEST PUSH2 0x309 JUMP JUMPDEST PUSH2 0x300 JUMP JUMPDEST SWAP1 POP SWAP2 SWAP1 POP JUMP JUMPDEST PUSH0 DUP2 SWAP1 POP SWAP2 SWAP1 POP JUMP JUMPDEST PUSH2 0x345 DUP4 PUSH2 0x312 JUMP JUMPDEST PUSH2 0x359 PUSH2 0x351 DUP3 PUSH2 0x333 JUMP JUMPDEST DUP5 DUP5 SLOAD PUSH2 0x2AF JUMP JUMPDEST DUP3 SSTORE POP POP POP POP JUMP JUMPDEST PUSH0 SWAP1 JUMP JUMPDEST PUSH2 0x36D PUSH2 0x361 JUMP JUMPDEST PUSH2 0x378 DUP2 DUP5 DUP5 PUSH2 0x33C JUMP JUMPDEST POP POP POP JUMP JUMPDEST JUMPDEST DUP2 DUP2 LT ISZERO PUSH2 0x39B JUMPI PUSH2 0x390 PUSH0 DUP3 PUSH2 0x365 JUMP JUMPDEST PUSH1 0x1 DUP2 ADD SWAP1 POP PUSH2 0x37E JUMP JUMPDEST POP POP JUMP JUMPDEST PUSH1 0x1F DUP3 GT ISZERO PUSH2 0x3E0 JUMPI PUSH2 0x3B1 DUP2 PUSH2 0x282 JUMP JUMPDEST PUSH2 0x3BA DUP5 PUSH2 0x294 JUMP JUMPDEST DUP2 ADD PUSH1 0x20 DUP6 LT ISZERO PUSH2 0x3C9 JUMPI DUP2 SWAP1 POP JUMPDEST PUSH2 0x3DD PUSH2 0x3D5 DUP6 PUSH2 0x294 JUMP JUMPDEST DUP4 ADD DUP3 PUSH2 0x37D JUMP JUMPDEST POP POP JUMPDEST POP POP POP JUMP JUMPDEST PUSH0 DUP3 DUP3 SHR SWAP1 POP SWAP3 SWAP2 POP POP JUMP JUMPDEST PUSH0 PUSH2 0x400 PUSH0 NOT DUP5 PUSH1 0x8 MUL PUSH2 0x3E5 JUMP JUMPDEST NOT DUP1 DUP4 AND SWAP2 POP POP SWAP3 SWAP2 POP POP JUMP JUMPDEST PUSH0 PUSH2 0x418 DUP4 DUP4 PUSH2 0x3F1 JUMP JUMPDEST SWAP2 POP DUP3 PUSH1 0x2 MUL DUP3 OR SWAP1 POP SWAP3 SWAP2 POP POP JUMP JUMPDEST PUSH2 0x431 DUP3 PUSH2 0x1EE JUMP JUMPDEST PUSH8 0xFFFFFFFFFFFFFFFF DUP2 GT ISZERO PUSH2 0x44A JUMPI PUSH2 0x449 PUSH2 0x1F8 JUMP JUMPDEST JUMPDEST PUSH2 0x454 DUP3 SLOAD PUSH2 0x252 JUMP JUMPDEST PUSH2 0x45F DUP3 DUP3 DUP6 PUSH2 0x39F JUMP JUMPDEST PUSH0 PUSH1 0x20 SWAP1 POP PUSH1 0x1F DUP4 GT PUSH1 0x1 DUP2 EQ PUSH2 0x490 JUMPI PUSH0 DUP5 ISZERO PUSH2 0x47E JUMPI DUP3 DUP8 ADD MLOAD SWAP1 POP JUMPDEST PUSH2 0x488 DUP6 DUP3 PUSH2 0x40D JUMP JUMPDEST DUP7 SSTORE POP PUSH2 0x4EF JUMP JUMPDEST PUSH1 0x1F NOT DUP5 AND PUSH2 0x49E DUP7 PUSH2 0x282 JUMP JUMPDEST PUSH0 JUMPDEST DUP3 DUP2 LT ISZERO PUSH2 0x4C5 JUMPI DUP5 DUP10 ADD MLOAD DUP3 SSTORE PUSH1 0x1 DUP3 ADD SWAP2 POP PUSH1 0x20 DUP6 ADD SWAP5 POP PUSH1 0x20 DUP2 ADD SWAP1 POP PUSH2 0x4A0 JUMP JUMPDEST DUP7 DUP4 LT ISZERO PUSH2 0x4E2 JUMPI DUP5 DUP10 ADD MLOAD PUSH2 0x4DE PUSH1 0x1F DUP10 AND DUP3 PUSH2 0x3F1 JUMP JUMPDEST DUP4 SSTORE POP JUMPDEST PUSH1 0x1 PUSH1 0x2 DUP9 MUL ADD DUP9 SSTORE POP POP POP JUMPDEST POP POP POP POP POP POP JUMP JUMPDEST PUSH0 DUP3 DUP3 MSTORE PUSH1 0x20 DUP3 ADD SWAP1 POP SWAP3 SWAP2 POP POP JUMP JUMPDEST DUP3 DUP2 DUP4 MCOPY PUSH0 DUP4 DUP4 ADD MSTORE POP POP POP JUMP JUMPDEST PUSH0 PUSH1 0x1F NOT PUSH1 0x1F DUP4 ADD AND SWAP1 POP SWAP2 SWAP1 POP JUMP JUMPDEST PUSH0 PUSH2 0x52F DUP3 PUSH2 0x1EE JUMP JUMPDEST PUSH2 0x539 DUP2 DUP6 PUSH2 0x4F7 JUMP JUMPDEST SWAP4 POP PUSH2 0x549 DUP2 DUP6 PUSH1 0x20 DUP7 ADD PUSH2 0x507 JUMP JUMPDEST PUSH2 0x552 DUP2 PUSH2 0x515 JUMP JUMPDEST DUP5 ADD SWAP2 POP POP SWAP3 SWAP2 POP POP JUMP JUMPDEST PUSH0 PUSH1 0x20 DUP3 ADD SWAP1 POP DUP2 DUP2 SUB PUSH0 DUP4 ADD MSTORE PUSH2 0x575 DUP2 DUP5 PUSH2 0x525 JUMP JUMPDEST SWAP1 POP SWAP3 SWAP2 POP POP JUMP JUMPDEST PUSH0 PUSH1 0x40 MLOAD SWAP1 POP SWAP1 JUMP JUMPDEST PUSH0 DUP1 REVERT JUMPDEST PUSH0 DUP1 REVERT JUMPDEST PUSH0 DUP1 REVERT JUMPDEST PUSH0 DUP1 REVERT JUMPDEST PUSH2 0x59F DUP3 PUSH2 0x515 JUMP JUMPDEST DUP2 ADD DUP2 DUP2 LT PUSH8 0xFFFFFFFFFFFFFFFF DUP3 GT OR ISZERO PUSH2 0x5BE JUMPI PUSH2 0x5BD PUSH2 0x1F8 JUMP JUMPDEST JUMPDEST DUP1 PUSH1 0x40 MSTORE POP POP POP JUMP JUMPDEST PUSH0 PUSH2 0x5D0 PUSH2 0x57D JUMP JUMPDEST SWAP1 POP PUSH2 0x5DC DUP3 DUP3 PUSH2 0x596 JUMP JUMPDEST SWAP2 SWAP1 POP JUMP JUMPDEST PUSH0 PUSH8 0xFFFFFFFFFFFFFFFF DUP3 GT ISZERO PUSH2 0x5FB JUMPI PUSH2 0x5FA PUSH2 0x1F8 JUMP JUMPDEST JUMPDEST PUSH2 0x604 DUP3 PUSH2 0x515 JUMP JUMPDEST SWAP1 POP PUSH1 0x20 DUP2 ADD SWAP1 POP SWAP2 SWAP1 POP JUMP JUMPDEST DUP3 DUP2 DUP4 CALLDATACOPY PUSH0 DUP4 DUP4 ADD MSTORE POP POP POP JUMP JUMPDEST PUSH0 PUSH2 0x631 PUSH2 0x62C DUP5 PUSH2 0x5E1 JUMP JUMPDEST PUSH2 0x5C7 JUMP JUMPDEST SWAP1 POP DUP3 DUP2 MSTORE PUSH1 0x20 DUP2 ADD DUP5 DUP5 DUP5 ADD GT ISZERO PUSH2 0x64D JUMPI PUSH2 0x64C PUSH2 0x592 JUMP JUMPDEST JUMPDEST PUSH2 0x658 DUP5 DUP3 DUP6 PUSH2 0x611 JUMP JUMPDEST POP SWAP4 SWAP3 POP POP POP JUMP JUMPDEST PUSH0 DUP3 PUSH1 0x1F DUP4 ADD SLT PUSH2 0x674 JUMPI PUSH2 0x673 PUSH2 0x58E JUMP JUMPDEST JUMPDEST DUP2 CALLDATALOAD PUSH2 0x684 DUP5 DUP3 PUSH1 0x20 DUP7 ADD PUSH2 0x61F JUMP JUMPDEST SWAP2 POP POP SWAP3 SWAP2 POP POP JUMP JUMPDEST PUSH0 PUSH1 0x20 DUP3 DUP5 SUB SLT ISZERO PUSH2 0x6A2 JUMPI PUSH2 0x6A1 PUSH2 0x586 JUMP JUMPDEST JUMPDEST PUSH0 DUP3 ADD CALLDATALOAD PUSH8 0xFFFFFFFFFFFFFFFF DUP2 GT ISZERO PUSH2 0x6BF JUMPI PUSH2 0x6BE PUSH2 0x58A JUMP JUMPDEST JUMPDEST PUSH2 0x6CB DUP5 DUP3 DUP6 ADD PUSH2 0x660 JUMP JUMPDEST SWAP2 POP POP SWAP3 SWAP2 POP POP JUMP INVALID LOG2 PUSH5 0x6970667358 0x22 SLT KECCAK256 0x28 0xC1 PUSH11 0x4BA6C20A131C05CE5B223B 0xA9 0x27 0xD PUSH3 0x292BB 0x2D 0xEE 0xA8 DUP13 0xC1 0xC4 0xC7 DIV DUP14 INVALID 0xD2 PUSH5 0x736F6C6343 STOP ADDMOD BYTE STOP CALLER "
				},
				"gasEstimates": {
					"creation": {
						"codeDepositCost": "360400",
						"executionCost": "397",
						"totalCost": "360797"
					},
					"external": {
						"": "infinite",
						"setText(string)": "infinite",
						"text()": "infinite"
					}
				},
				"methodIdentifiers": {
					"setText(string)": "5d3a1f9d",
					"text()": "1f1bd692"
				}
			},
			"storageLayout": {
				"storage": [
					{
						"astId": 3,
						"contract": "contracts/SampleFallback.sol:SampleFallback",
						"label": "text",
						"offset": 0,
						"slot": "0",
						"type": "t_string_storage"
					}
				],
				"types": {
					"t_string_storage": {
						"encoding": "bytes",
						"label": "string",
						"numberOfBytes": "32"
					}
				}
			},
			"userdoc": {
				"kind": "user",
				"methods": {},
				"version": 1
			}
		}
	}
}